{
  "contractName": "AuctionBid",
  "abi": [
    {
      "inputs": [
        {
          "internalType": "address",
          "name": "_address",
          "type": "address"
        }
      ],
      "stateMutability": "nonpayable",
      "type": "constructor"
    },
    {
      "inputs": [],
      "name": "bid",
      "outputs": [],
      "stateMutability": "nonpayable",
      "type": "function"
    }
  ],
  "bytecode": "0x608060405234801561001057600080fd5b50604051610201380380610201833981810160405281019061003291906100db565b806000806101000a81548173ffffffffffffffffffffffffffffffffffffffff021916908373ffffffffffffffffffffffffffffffffffffffff16021790555050610108565b600080fd5b600073ffffffffffffffffffffffffffffffffffffffff82169050919050565b60006100a88261007d565b9050919050565b6100b88161009d565b81146100c357600080fd5b50565b6000815190506100d5816100af565b92915050565b6000602082840312156100f1576100f0610078565b5b60006100ff848285016100c6565b91505092915050565b60eb806101166000396000f3fe6080604052348015600f57600080fd5b506004361060285760003560e01c80631998aeef14602d575b600080fd5b60336035565b005b60008054906101000a900473ffffffffffffffffffffffffffffffffffffffff1673ffffffffffffffffffffffffffffffffffffffff16631998aeef6040518163ffffffff1660e01b8152600401600060405180830381600087803b158015609c57600080fd5b505af115801560af573d6000803e3d6000fd5b5050505056fea2646970667358221220939a00f97060f02d12e4f853e846a811e4e54e51ad1626d8fc85933bfbcd964064736f6c634300080a0033",
  "immutableReferences": {},
  "source": "// SPDX-License-Identifier: MIT\npragma solidity >=0.8.4 <0.9.0;\n\nimport \"./SimpleAuction.sol\";\n\ncontract AuctionBid {\n\n    SimpleAuction auctionInstance;\n    /// Create a simple auction with `biddingTime`\n    /// seconds bidding time on behalf of the\n    /// beneficiary address `beneficiaryAddress`.\n    constructor(\n        address _address\n    ) {\n        auctionInstance = SimpleAuction(_address);\n    }\n\n    /// Bid on the auction.\n    function bid() public {\n        auctionInstance.bid();\n    }\n}",
  "sourcePath": "/Users/xinhengs/Develop/BlockChain/smart-contracts-tutorial/simple-auction/contracts/AuctionBid.sol",
  "compiler": {
    "name": "solc",
    "version": "0.8.10+commit.fc410830.Emscripten.clang"
  },
  "schemaVersion": "3.4.3",
  "updatedAt": "2021-11-15T07:32:57.183Z",
  "networkType": "ethereum",
  "devdoc": {
    "kind": "dev",
    "methods": {},
    "version": 1
  },
  "userdoc": {
    "kind": "user",
    "methods": {
      "bid()": {
        "notice": "Bid on the auction."
      },
      "constructor": {
        "notice": "Create a simple auction with `biddingTime` seconds bidding time on behalf of the beneficiary address `beneficiaryAddress`."
      }
    },
    "version": 1
  }
}