{
  "contractName": "AuctionBid",
  "abi": [
    {
      "inputs": [
        {
          "internalType": "address",
          "name": "_address",
          "type": "address"
        }
      ],
      "stateMutability": "nonpayable",
      "type": "constructor"
    },
    {
      "inputs": [],
      "name": "bid",
      "outputs": [],
      "stateMutability": "nonpayable",
      "type": "function"
    }
  ],
  "bytecode": "0x608060405234801561001057600080fd5b506040516102443803806102448339818101604052810190610032919061011c565b80600160006101000a81548173ffffffffffffffffffffffffffffffffffffffff021916908373ffffffffffffffffffffffffffffffffffffffff160217905550806000806101000a81548173ffffffffffffffffffffffffffffffffffffffff021916908373ffffffffffffffffffffffffffffffffffffffff16021790555050610149565b600080fd5b600073ffffffffffffffffffffffffffffffffffffffff82169050919050565b60006100e9826100be565b9050919050565b6100f9816100de565b811461010457600080fd5b50565b600081519050610116816100f0565b92915050565b600060208284031215610132576101316100b9565b5b600061014084828501610107565b91505092915050565b60ed806101576000396000f3fe6080604052348015600f57600080fd5b506004361060285760003560e01c80631998aeef14602d575b600080fd5b60336035565b005b60008054906101000a900473ffffffffffffffffffffffffffffffffffffffff1673ffffffffffffffffffffffffffffffffffffffff16631998aeef60016040518263ffffffff1660e01b81526004016000604051808303818588803b158015609d57600080fd5b505af115801560b0573d6000803e3d6000fd5b505050505056fea26469706673582212203b8740b3fbb6ffcad3d1cf76829396ef3950325a06c912782cefc6d3bba0be5064736f6c634300080a0033",
  "immutableReferences": {},
  "source": "// SPDX-License-Identifier: MIT\npragma solidity >=0.8.4 <0.9.0;\n\nimport \"./SimpleAuction.sol\";\n\ncontract AuctionBid {\n\n    SimpleAuction auctionInstance;\n    address auctionContractAddress;\n    /// Create a simple auction with `biddingTime`\n    /// seconds bidding time on behalf of the\n    /// beneficiary address `beneficiaryAddress`.\n    constructor(\n        address _address\n    ) {\n        auctionContractAddress = _address;\n        auctionInstance = SimpleAuction(_address);\n    }\n\n    /// Bid on the auction.\n    function bid() public {\n        auctionInstance.bid{value:1}();\n    }\n}",
  "sourcePath": "/Users/xinhengs/Develop/BlockChain/smart-contracts-tutorial/simple-auction/contracts/AuctionBid.sol",
  "compiler": {
    "name": "solc",
    "version": "0.8.10+commit.fc410830.Emscripten.clang"
  },
  "schemaVersion": "3.4.3",
  "updatedAt": "2021-11-12T07:20:58.902Z",
  "networkType": "ethereum",
  "devdoc": {
    "kind": "dev",
    "methods": {},
    "version": 1
  },
  "userdoc": {
    "kind": "user",
    "methods": {
      "bid()": {
        "notice": "Bid on the auction."
      },
      "constructor": {
        "notice": "Create a simple auction with `biddingTime` seconds bidding time on behalf of the beneficiary address `beneficiaryAddress`."
      }
    },
    "version": 1
  }
}