{
  "contractName": "Purchase",
  "abi": [
    {
      "inputs": [],
      "stateMutability": "payable",
      "type": "constructor",
      "payable": true
    },
    {
      "inputs": [],
      "name": "InvalidState",
      "type": "error"
    },
    {
      "inputs": [],
      "name": "OnlyBuyer",
      "type": "error"
    },
    {
      "inputs": [],
      "name": "OnlySeller",
      "type": "error"
    },
    {
      "inputs": [],
      "name": "ValueNotEven",
      "type": "error"
    },
    {
      "anonymous": false,
      "inputs": [],
      "name": "Aborted",
      "type": "event"
    },
    {
      "anonymous": false,
      "inputs": [],
      "name": "ItemReceived",
      "type": "event"
    },
    {
      "anonymous": false,
      "inputs": [],
      "name": "PurchaseConfirmed",
      "type": "event"
    },
    {
      "anonymous": false,
      "inputs": [],
      "name": "SellerRefunded",
      "type": "event"
    },
    {
      "inputs": [],
      "name": "buyer",
      "outputs": [
        {
          "internalType": "address payable",
          "name": "",
          "type": "address"
        }
      ],
      "stateMutability": "view",
      "type": "function",
      "constant": true
    },
    {
      "inputs": [],
      "name": "seller",
      "outputs": [
        {
          "internalType": "address payable",
          "name": "",
          "type": "address"
        }
      ],
      "stateMutability": "view",
      "type": "function",
      "constant": true
    },
    {
      "inputs": [],
      "name": "state",
      "outputs": [
        {
          "internalType": "enum Purchase.State",
          "name": "",
          "type": "uint8"
        }
      ],
      "stateMutability": "view",
      "type": "function",
      "constant": true
    },
    {
      "inputs": [],
      "name": "value",
      "outputs": [
        {
          "internalType": "uint256",
          "name": "",
          "type": "uint256"
        }
      ],
      "stateMutability": "view",
      "type": "function",
      "constant": true
    },
    {
      "inputs": [],
      "name": "abort",
      "outputs": [],
      "stateMutability": "nonpayable",
      "type": "function"
    },
    {
      "inputs": [],
      "name": "confirmPurchase",
      "outputs": [],
      "stateMutability": "payable",
      "type": "function",
      "payable": true
    },
    {
      "inputs": [],
      "name": "confirmReceived",
      "outputs": [],
      "stateMutability": "nonpayable",
      "type": "function"
    },
    {
      "inputs": [],
      "name": "refundSeller",
      "outputs": [],
      "stateMutability": "nonpayable",
      "type": "function"
    }
  ],
  "bytecode": "0x608060405233600160006101000a81548173ffffffffffffffffffffffffffffffffffffffff021916908373ffffffffffffffffffffffffffffffffffffffff160217905550600234610052919061010c565b600081905550346000546002610068919061013d565b1461009f576040517fbe3e4c4200000000000000000000000000000000000000000000000000000000815260040160405180910390fd5b610197565b6000819050919050565b7f4e487b7100000000000000000000000000000000000000000000000000000000600052601260045260246000fd5b7f4e487b7100000000000000000000000000000000000000000000000000000000600052601160045260246000fd5b6000610117826100a4565b9150610122836100a4565b925082610132576101316100ae565b5b828204905092915050565b6000610148826100a4565b9150610153836100a4565b9250817fffffffffffffffffffffffffffffffffffffffffffffffffffffffffffffffff048311821515161561018c5761018b6100dd565b5b828202905092915050565b610a1d806101a66000396000f3fe60806040526004361061007b5760003560e01c806373fac6f01161004e57806373fac6f014610118578063c19d93fb1461012f578063c7981b1b1461015a578063d6960697146101715761007b565b806308551a531461008057806335a063b4146100ab5780633fa4f245146100c25780637150d8ae146100ed575b600080fd5b34801561008c57600080fd5b5061009561017b565b6040516100a2919061087d565b60405180910390f35b3480156100b757600080fd5b506100c06101a1565b005b3480156100ce57600080fd5b506100d7610359565b6040516100e491906108b1565b60405180910390f35b3480156100f957600080fd5b5061010261035f565b60405161010f919061087d565b60405180910390f35b34801561012457600080fd5b5061012d610385565b005b34801561013b57600080fd5b5061014461053e565b6040516101519190610943565b60405180910390f35b34801561016657600080fd5b5061016f610551565b005b610179610717565b005b600160009054906101000a900473ffffffffffffffffffffffffffffffffffffffff1681565b600160009054906101000a900473ffffffffffffffffffffffffffffffffffffffff1673ffffffffffffffffffffffffffffffffffffffff163373ffffffffffffffffffffffffffffffffffffffff1614610228576040517f85d1f72600000000000000000000000000000000000000000000000000000000815260040160405180910390fd5b600080600381111561023d5761023c6108cc565b5b600260149054906101000a900460ff16600381111561025f5761025e6108cc565b5b14610296576040517fbaf3f0f700000000000000000000000000000000000000000000000000000000815260040160405180910390fd5b7f72c874aeff0b183a56e2b79c71b46e1aed4dee5e09862134b8821ba2fddbf8bf60405160405180910390a16003600260146101000a81548160ff021916908360038111156102e8576102e76108cc565b5b0217905550600160009054906101000a900473ffffffffffffffffffffffffffffffffffffffff1673ffffffffffffffffffffffffffffffffffffffff166108fc479081150290604051600060405180830381858888f19350505050158015610355573d6000803e3d6000fd5b5050565b60005481565b600260009054906101000a900473ffffffffffffffffffffffffffffffffffffffff1681565b600260009054906101000a900473ffffffffffffffffffffffffffffffffffffffff1673ffffffffffffffffffffffffffffffffffffffff163373ffffffffffffffffffffffffffffffffffffffff161461040c576040517f86efbb5500000000000000000000000000000000000000000000000000000000815260040160405180910390fd5b6001806003811115610421576104206108cc565b5b600260149054906101000a900460ff166003811115610443576104426108cc565b5b1461047a576040517fbaf3f0f700000000000000000000000000000000000000000000000000000000815260040160405180910390fd5b7fe89152acd703c9d8c7d28829d443260b411454d45394e7995815140c8cbcbcf760405160405180910390a160028060146101000a81548160ff021916908360038111156104cb576104ca6108cc565b5b0217905550600260009054906101000a900473ffffffffffffffffffffffffffffffffffffffff1673ffffffffffffffffffffffffffffffffffffffff166108fc6000549081150290604051600060405180830381858888f1935050505015801561053a573d6000803e3d6000fd5b5050565b600260149054906101000a900460ff1681565b600160009054906101000a900473ffffffffffffffffffffffffffffffffffffffff1673ffffffffffffffffffffffffffffffffffffffff163373ffffffffffffffffffffffffffffffffffffffff16146105d8576040517f85d1f72600000000000000000000000000000000000000000000000000000000815260040160405180910390fd5b60028060038111156105ed576105ec6108cc565b5b600260149054906101000a900460ff16600381111561060f5761060e6108cc565b5b14610646576040517fbaf3f0f700000000000000000000000000000000000000000000000000000000815260040160405180910390fd5b7ffda69c32bcfdba840a167777906b173b607eb8b4d8853b97a80d26e613d858db60405160405180910390a16003600260146101000a81548160ff02191690836003811115610698576106976108cc565b5b0217905550600160009054906101000a900473ffffffffffffffffffffffffffffffffffffffff1673ffffffffffffffffffffffffffffffffffffffff166108fc60005460036106e8919061098d565b9081150290604051600060405180830381858888f19350505050158015610713573d6000803e3d6000fd5b5050565b600080600381111561072c5761072b6108cc565b5b600260149054906101000a900460ff16600381111561074e5761074d6108cc565b5b14610785576040517fbaf3f0f700000000000000000000000000000000000000000000000000000000815260040160405180910390fd5b6000546002610794919061098d565b3414806107a057600080fd5b7fd5d55c8a68912e9a110618df8d5e2e83b8d83211c57a8ddd1203df92885dc88160405160405180910390a133600260006101000a81548173ffffffffffffffffffffffffffffffffffffffff021916908373ffffffffffffffffffffffffffffffffffffffff1602179055506001600260146101000a81548160ff02191690836003811115610833576108326108cc565b5b02179055505050565b600073ffffffffffffffffffffffffffffffffffffffff82169050919050565b60006108678261083c565b9050919050565b6108778161085c565b82525050565b6000602082019050610892600083018461086e565b92915050565b6000819050919050565b6108ab81610898565b82525050565b60006020820190506108c660008301846108a2565b92915050565b7f4e487b7100000000000000000000000000000000000000000000000000000000600052602160045260246000fd5b6004811061090c5761090b6108cc565b5b50565b600081905061091d826108fb565b919050565b600061092d8261090f565b9050919050565b61093d81610922565b82525050565b60006020820190506109586000830184610934565b92915050565b7f4e487b7100000000000000000000000000000000000000000000000000000000600052601160045260246000fd5b600061099882610898565b91506109a383610898565b9250817fffffffffffffffffffffffffffffffffffffffffffffffffffffffffffffffff04831182151516156109dc576109db61095e565b5b82820290509291505056fea2646970667358221220b1772deb927cb416fb33045954e11c55526bf40efd67ace1f939a6987aecb40464736f6c634300080a0033",
  "immutableReferences": {},
  "source": "// SPDX-License-Identifier: GPL-3.0\npragma solidity ^0.8.4;\ncontract Purchase {\n    uint public value;\n    address payable public seller;\n    address payable public buyer;\n\n    enum State { Created, Locked, Release, Inactive }\n    // The state variable has a default value of the first member, `State.created`\n    State public state;\n\n    modifier condition(bool condition_) {\n        require(condition_);\n        _;\n    }\n\n    /// Only the buyer can call this function.\n    error OnlyBuyer();\n    /// Only the seller can call this function.\n    error OnlySeller();\n    /// The function cannot be called at the current state.\n    error InvalidState();\n    /// The provided value has to be even.\n    error ValueNotEven();\n\n    modifier onlyBuyer() {\n        if (msg.sender != buyer)\n            revert OnlyBuyer();\n        _;\n    }\n\n    modifier onlySeller() {\n        if (msg.sender != seller)\n            revert OnlySeller();\n        _;\n    }\n\n    modifier inState(State state_) {\n        if (state != state_)\n            revert InvalidState();\n        _;\n    }\n\n    event Aborted();\n    event PurchaseConfirmed();\n    event ItemReceived();\n    event SellerRefunded();\n\n    // Ensure that `msg.value` is an even number.\n    // Division will truncate if it is an odd number.\n    // Check via multiplication that it wasn't an odd number.\n    constructor() payable {\n        seller = payable(msg.sender);\n        value = msg.value / 2;\n        if ((2 * value) != msg.value)\n            revert ValueNotEven();\n    }\n\n    /// Abort the purchase and reclaim the ether.\n    /// Can only be called by the seller before\n    /// the contract is locked.\n    function abort()\n        external\n        onlySeller\n        inState(State.Created)\n    {\n        emit Aborted();\n        state = State.Inactive;\n        // We use transfer here directly. It is\n        // reentrancy-safe, because it is the\n        // last call in this function and we\n        // already changed the state.\n        seller.transfer(address(this).balance);\n    }\n\n    /// Confirm the purchase as buyer.\n    /// Transaction has to include `2 * value` ether.\n    /// The ether will be locked until confirmReceived\n    /// is called.\n    function confirmPurchase()\n        external\n        inState(State.Created)\n        condition(msg.value == (2 * value))\n        payable\n    {\n        emit PurchaseConfirmed();\n        buyer = payable(msg.sender);\n        state = State.Locked;\n    }\n\n    /// Confirm that you (the buyer) received the item.\n    /// This will release the locked ether.\n    function confirmReceived()\n        external\n        onlyBuyer\n        inState(State.Locked)\n    {\n        emit ItemReceived();\n        // It is important to change the state first because\n        // otherwise, the contracts called using `send` below\n        // can call in again here.\n        state = State.Release;\n\n        buyer.transfer(value);\n    }\n\n    /// This function refunds the seller, i.e.\n    /// pays back the locked funds of the seller.\n    function refundSeller()\n        external\n        onlySeller\n        inState(State.Release)\n    {\n        emit SellerRefunded();\n        // It is important to change the state first because\n        // otherwise, the contracts called using `send` below\n        // can call in again here.\n        state = State.Inactive;\n\n        seller.transfer(3 * value);\n    }\n}",
  "sourcePath": "/Users/xinhengs/Develop/BlockChain/smart-contracts-tutorial/remote-purchase/contracts/Purchase.sol",
  "compiler": {
    "name": "solc",
    "version": "0.8.10+commit.fc410830.Emscripten.clang"
  },
  "schemaVersion": "3.4.3",
  "updatedAt": "2021-11-16T07:09:01.992Z",
  "networkType": "ethereum",
  "devdoc": {
    "kind": "dev",
    "methods": {},
    "version": 1
  },
  "userdoc": {
    "errors": {
      "InvalidState()": [
        {
          "notice": "The function cannot be called at the current state."
        }
      ],
      "OnlyBuyer()": [
        {
          "notice": "Only the buyer can call this function."
        }
      ],
      "OnlySeller()": [
        {
          "notice": "Only the seller can call this function."
        }
      ],
      "ValueNotEven()": [
        {
          "notice": "The provided value has to be even."
        }
      ]
    },
    "kind": "user",
    "methods": {
      "abort()": {
        "notice": "Abort the purchase and reclaim the ether. Can only be called by the seller before the contract is locked."
      },
      "confirmPurchase()": {
        "notice": "Confirm the purchase as buyer. Transaction has to include `2 * value` ether. The ether will be locked until confirmReceived is called."
      },
      "confirmReceived()": {
        "notice": "Confirm that you (the buyer) received the item. This will release the locked ether."
      },
      "refundSeller()": {
        "notice": "This function refunds the seller, i.e. pays back the locked funds of the seller."
      }
    },
    "version": 1
  }
}