{
  "contractName": "Purchase",
  "abi": [
    {
      "inputs": [],
      "stateMutability": "payable",
      "type": "constructor",
      "payable": true
    },
    {
      "inputs": [],
      "name": "InvalidState",
      "type": "error"
    },
    {
      "inputs": [],
      "name": "OnlyBuyer",
      "type": "error"
    },
    {
      "inputs": [],
      "name": "OnlySeller",
      "type": "error"
    },
    {
      "inputs": [],
      "name": "ValueNotEven",
      "type": "error"
    },
    {
      "anonymous": false,
      "inputs": [],
      "name": "Aborted",
      "type": "event"
    },
    {
      "anonymous": false,
      "inputs": [],
      "name": "ItemReceived",
      "type": "event"
    },
    {
      "anonymous": false,
      "inputs": [],
      "name": "PurchaseConfirmed",
      "type": "event"
    },
    {
      "anonymous": false,
      "inputs": [],
      "name": "SellerRefunded",
      "type": "event"
    },
    {
      "inputs": [],
      "name": "buyer",
      "outputs": [
        {
          "internalType": "address payable",
          "name": "",
          "type": "address"
        }
      ],
      "stateMutability": "view",
      "type": "function",
      "constant": true
    },
    {
      "inputs": [],
      "name": "seller",
      "outputs": [
        {
          "internalType": "address payable",
          "name": "",
          "type": "address"
        }
      ],
      "stateMutability": "view",
      "type": "function",
      "constant": true
    },
    {
      "inputs": [],
      "name": "state",
      "outputs": [
        {
          "internalType": "enum Purchase.State",
          "name": "",
          "type": "uint8"
        }
      ],
      "stateMutability": "view",
      "type": "function",
      "constant": true
    },
    {
      "inputs": [],
      "name": "value",
      "outputs": [
        {
          "internalType": "uint256",
          "name": "",
          "type": "uint256"
        }
      ],
      "stateMutability": "view",
      "type": "function",
      "constant": true
    },
    {
      "inputs": [],
      "name": "getValue",
      "outputs": [
        {
          "internalType": "uint256",
          "name": "",
          "type": "uint256"
        }
      ],
      "stateMutability": "view",
      "type": "function",
      "constant": true
    },
    {
      "inputs": [],
      "name": "abort",
      "outputs": [],
      "stateMutability": "nonpayable",
      "type": "function"
    },
    {
      "inputs": [],
      "name": "confirmPurchase",
      "outputs": [],
      "stateMutability": "payable",
      "type": "function",
      "payable": true
    },
    {
      "inputs": [],
      "name": "confirmReceived",
      "outputs": [],
      "stateMutability": "nonpayable",
      "type": "function"
    },
    {
      "inputs": [],
      "name": "refundSeller",
      "outputs": [],
      "stateMutability": "nonpayable",
      "type": "function"
    }
  ],
  "bytecode": "0x608060405233600160006101000a81548173ffffffffffffffffffffffffffffffffffffffff021916908373ffffffffffffffffffffffffffffffffffffffff160217905550600234610052919061010c565b600081905550346000546002610068919061013d565b1461009f576040517fbe3e4c4200000000000000000000000000000000000000000000000000000000815260040160405180910390fd5b610197565b6000819050919050565b7f4e487b7100000000000000000000000000000000000000000000000000000000600052601260045260246000fd5b7f4e487b7100000000000000000000000000000000000000000000000000000000600052601160045260246000fd5b6000610117826100a4565b9150610122836100a4565b925082610132576101316100ae565b5b828204905092915050565b6000610148826100a4565b9150610153836100a4565b9250817fffffffffffffffffffffffffffffffffffffffffffffffffffffffffffffffff048311821515161561018c5761018b6100dd565b5b828202905092915050565b610a5c806101a66000396000f3fe6080604052600436106100865760003560e01c80637150d8ae116100595780637150d8ae1461012357806373fac6f01461014e578063c19d93fb14610165578063c7981b1b14610190578063d6960697146101a757610086565b806308551a531461008b57806320965255146100b657806335a063b4146100e15780633fa4f245146100f8575b600080fd5b34801561009757600080fd5b506100a06101b1565b6040516100ad91906108bc565b60405180910390f35b3480156100c257600080fd5b506100cb6101d7565b6040516100d891906108f0565b60405180910390f35b3480156100ed57600080fd5b506100f66101e0565b005b34801561010457600080fd5b5061010d610398565b60405161011a91906108f0565b60405180910390f35b34801561012f57600080fd5b5061013861039e565b60405161014591906108bc565b60405180910390f35b34801561015a57600080fd5b506101636103c4565b005b34801561017157600080fd5b5061017a61057d565b6040516101879190610982565b60405180910390f35b34801561019c57600080fd5b506101a5610590565b005b6101af610756565b005b600160009054906101000a900473ffffffffffffffffffffffffffffffffffffffff1681565b60008054905090565b600160009054906101000a900473ffffffffffffffffffffffffffffffffffffffff1673ffffffffffffffffffffffffffffffffffffffff163373ffffffffffffffffffffffffffffffffffffffff1614610267576040517f85d1f72600000000000000000000000000000000000000000000000000000000815260040160405180910390fd5b600080600381111561027c5761027b61090b565b5b600260149054906101000a900460ff16600381111561029e5761029d61090b565b5b146102d5576040517fbaf3f0f700000000000000000000000000000000000000000000000000000000815260040160405180910390fd5b7f72c874aeff0b183a56e2b79c71b46e1aed4dee5e09862134b8821ba2fddbf8bf60405160405180910390a16003600260146101000a81548160ff021916908360038111156103275761032661090b565b5b0217905550600160009054906101000a900473ffffffffffffffffffffffffffffffffffffffff1673ffffffffffffffffffffffffffffffffffffffff166108fc479081150290604051600060405180830381858888f19350505050158015610394573d6000803e3d6000fd5b5050565b60005481565b600260009054906101000a900473ffffffffffffffffffffffffffffffffffffffff1681565b600260009054906101000a900473ffffffffffffffffffffffffffffffffffffffff1673ffffffffffffffffffffffffffffffffffffffff163373ffffffffffffffffffffffffffffffffffffffff161461044b576040517f86efbb5500000000000000000000000000000000000000000000000000000000815260040160405180910390fd5b60018060038111156104605761045f61090b565b5b600260149054906101000a900460ff1660038111156104825761048161090b565b5b146104b9576040517fbaf3f0f700000000000000000000000000000000000000000000000000000000815260040160405180910390fd5b7fe89152acd703c9d8c7d28829d443260b411454d45394e7995815140c8cbcbcf760405160405180910390a160028060146101000a81548160ff0219169083600381111561050a5761050961090b565b5b0217905550600260009054906101000a900473ffffffffffffffffffffffffffffffffffffffff1673ffffffffffffffffffffffffffffffffffffffff166108fc6000549081150290604051600060405180830381858888f19350505050158015610579573d6000803e3d6000fd5b5050565b600260149054906101000a900460ff1681565b600160009054906101000a900473ffffffffffffffffffffffffffffffffffffffff1673ffffffffffffffffffffffffffffffffffffffff163373ffffffffffffffffffffffffffffffffffffffff1614610617576040517f85d1f72600000000000000000000000000000000000000000000000000000000815260040160405180910390fd5b600280600381111561062c5761062b61090b565b5b600260149054906101000a900460ff16600381111561064e5761064d61090b565b5b14610685576040517fbaf3f0f700000000000000000000000000000000000000000000000000000000815260040160405180910390fd5b7ffda69c32bcfdba840a167777906b173b607eb8b4d8853b97a80d26e613d858db60405160405180910390a16003600260146101000a81548160ff021916908360038111156106d7576106d661090b565b5b0217905550600160009054906101000a900473ffffffffffffffffffffffffffffffffffffffff1673ffffffffffffffffffffffffffffffffffffffff166108fc600054600361072791906109cc565b9081150290604051600060405180830381858888f19350505050158015610752573d6000803e3d6000fd5b5050565b600080600381111561076b5761076a61090b565b5b600260149054906101000a900460ff16600381111561078d5761078c61090b565b5b146107c4576040517fbaf3f0f700000000000000000000000000000000000000000000000000000000815260040160405180910390fd5b60005460026107d391906109cc565b3414806107df57600080fd5b7fd5d55c8a68912e9a110618df8d5e2e83b8d83211c57a8ddd1203df92885dc88160405160405180910390a133600260006101000a81548173ffffffffffffffffffffffffffffffffffffffff021916908373ffffffffffffffffffffffffffffffffffffffff1602179055506001600260146101000a81548160ff021916908360038111156108725761087161090b565b5b02179055505050565b600073ffffffffffffffffffffffffffffffffffffffff82169050919050565b60006108a68261087b565b9050919050565b6108b68161089b565b82525050565b60006020820190506108d160008301846108ad565b92915050565b6000819050919050565b6108ea816108d7565b82525050565b600060208201905061090560008301846108e1565b92915050565b7f4e487b7100000000000000000000000000000000000000000000000000000000600052602160045260246000fd5b6004811061094b5761094a61090b565b5b50565b600081905061095c8261093a565b919050565b600061096c8261094e565b9050919050565b61097c81610961565b82525050565b60006020820190506109976000830184610973565b92915050565b7f4e487b7100000000000000000000000000000000000000000000000000000000600052601160045260246000fd5b60006109d7826108d7565b91506109e2836108d7565b9250817fffffffffffffffffffffffffffffffffffffffffffffffffffffffffffffffff0483118215151615610a1b57610a1a61099d565b5b82820290509291505056fea2646970667358221220234a1ccc7a39f9566b267bd188ed9cecf95915d565a0800279671444bc865c5664736f6c634300080a0033",
  "immutableReferences": {},
  "source": "// SPDX-License-Identifier: GPL-3.0\npragma solidity ^0.8.4;\ncontract Purchase {\n    uint public value;\n    address payable public seller;\n    address payable public buyer;\n    enum State { Created, Locked, Release, Inactive }\n    // The state variable has a default value of the first member, `State.created`\n    State public state;\n\n    modifier condition(bool condition_) {\n        require(condition_);\n        _;\n    }\n\n    /// Only the buyer can call this function.\n    error OnlyBuyer();\n    /// Only the seller can call this function.\n    error OnlySeller();\n    /// The function cannot be called at the current state.\n    error InvalidState();\n    /// The provided value has to be even.\n    error ValueNotEven();\n\n    modifier onlyBuyer() {\n        if (msg.sender != buyer)\n            revert OnlyBuyer();\n        _;\n    }\n\n    modifier onlySeller() {\n        if (msg.sender != seller)\n            revert OnlySeller();\n        _;\n    }\n\n    modifier inState(State state_) {\n        if (state != state_)\n            revert InvalidState();\n        _;\n    }\n\n    event Aborted();\n    event PurchaseConfirmed();\n    event ItemReceived();\n    event SellerRefunded();\n\n    // Ensure that `msg.value` is an even number.\n    // Division will truncate if it is an odd number.\n    // Check via multiplication that it wasn't an odd number.\n    constructor() payable {\n        seller = payable(msg.sender);\n        value = msg.value / 2;\n        if ((2 * value) != msg.value)\n            revert ValueNotEven();\n    }\n\n    function getValue() public view returns (uint) {\n        return value;\n    }\n\n    /// Abort the purchase and reclaim the ether.\n    /// Can only be called by the seller before\n    /// the contract is locked.\n    function abort()\n        external\n        onlySeller\n        inState(State.Created)\n    {\n        emit Aborted();\n        state = State.Inactive;\n        // We use transfer here directly. It is\n        // reentrancy-safe, because it is the\n        // last call in this function and we\n        // already changed the state.\n        seller.transfer(address(this).balance);\n    }\n\n    /// Confirm the purchase as buyer.\n    /// Transaction has to include `2 * value` ether.\n    /// The ether will be locked until confirmReceived\n    /// is called.\n    function confirmPurchase()\n        external\n        inState(State.Created)\n        condition(msg.value == (2 * value))\n        payable\n    {\n        emit PurchaseConfirmed();\n        buyer = payable(msg.sender);\n        state = State.Locked;\n    }\n\n    /// Confirm that you (the buyer) received the item.\n    /// This will release the locked ether.\n    function confirmReceived()\n        external\n        onlyBuyer\n        inState(State.Locked)\n    {\n        emit ItemReceived();\n        // It is important to change the state first because\n        // otherwise, the contracts called using `send` below\n        // can call in again here.\n        state = State.Release;\n\n        buyer.transfer(value);\n    }\n\n    /// This function refunds the seller, i.e.\n    /// pays back the locked funds of the seller.\n    function refundSeller()\n        external\n        onlySeller\n        inState(State.Release)\n    {\n        emit SellerRefunded();\n        // It is important to change the state first because\n        // otherwise, the contracts called using `send` below\n        // can call in again here.\n        state = State.Inactive;\n\n        seller.transfer(3 * value);\n    }\n}",
  "sourcePath": "/Users/xinhengs/Develop/BlockChain/smart-contracts-tutorial/remote-purchase/contracts/Purchase.sol",
  "compiler": {
    "name": "solc",
    "version": "0.8.10+commit.fc410830.Emscripten.clang"
  },
  "schemaVersion": "3.4.3",
  "updatedAt": "2022-07-16T05:25:50.476Z",
  "networkType": "ethereum",
  "devdoc": {
    "kind": "dev",
    "methods": {},
    "version": 1
  },
  "userdoc": {
    "errors": {
      "InvalidState()": [
        {
          "notice": "The function cannot be called at the current state."
        }
      ],
      "OnlyBuyer()": [
        {
          "notice": "Only the buyer can call this function."
        }
      ],
      "OnlySeller()": [
        {
          "notice": "Only the seller can call this function."
        }
      ],
      "ValueNotEven()": [
        {
          "notice": "The provided value has to be even."
        }
      ]
    },
    "kind": "user",
    "methods": {
      "abort()": {
        "notice": "Abort the purchase and reclaim the ether. Can only be called by the seller before the contract is locked."
      },
      "confirmPurchase()": {
        "notice": "Confirm the purchase as buyer. Transaction has to include `2 * value` ether. The ether will be locked until confirmReceived is called."
      },
      "confirmReceived()": {
        "notice": "Confirm that you (the buyer) received the item. This will release the locked ether."
      },
      "refundSeller()": {
        "notice": "This function refunds the seller, i.e. pays back the locked funds of the seller."
      }
    },
    "version": 1
  }
}